:020000040800F2
:10000000D08100200D0200085B0D0008870B00085E
:10001000570D00085D050008137A00080000000075
:10002000000000000000000000000000416A00081D
:100030003D080008000000009B020008293000086D
:10004000270200082702000827020008E1590008DB
:1000500027020008270200082702000827020008DC
:1000600027020008270200082702000827020008CC
:1000700027020008270200082702000827020008BC
:1000800027020008270200082702000827020008AC
:10009000270200082702000827020008270200089C
:1000A000270200082702000827020008270200088C
:1000B000270200082702000827020008270200087C
:1000C000270200082702000827020008270200086C
:1000D000270200080D760008270200082702000802
:1000E000270200082702000827020008270200084C
:1000F000270200082702000827020008270200083C
:1001000027020008CD5C000827020008270200082B
:10011000270200082702000827020008270200081B
:10012000270200082702000827020008270200080B
:1001300000F002F800F05AF80AA090E8000C82449F
:100140008344AAF10107DA4501D100F04FF8AFF27C
:10015000090EBAE80F0013F0010F18BFFB1A43F0A5
:1001600001031847B0B70000D0B700000A444FF0B1
:10017000000C10F8013B13F0070408BF10F8014B06
:100180001D1108BF10F8015B641E05D010F8016B4B
:10019000641E01F8016BF9D113F0080F1EBF10F8AF
:1001A000014BAD1C0C1B09D16D1E58BF01F801CBD2
:1001B000FAD505E014F8016B01F8016B6D1EF9D555
:1001C0009142D6D37047000000230024002500266A
:1001D000103A28BF78C1FBD8520728BF30C148BFAA
:1001E0000B6070471FB51FBD10B510BD00F032F990
:1001F0001146FFF7F7FF09F01BF800F050F903B4C0
:10020000FFF7F2FF03BC07F0C5FC00000948804778
:1002100009480047FEE7FEE7FEE7FEE7FEE7FEE7E8
:10022000FEE7FEE7FEE7FEE704480549054A064B00
:1002300070470000056F000831010008D07B0020E6
:10024000D0810020D07D0020D07D002072B6704784
:1002500062B67047EFF3108072B6704780F3108873
:100260007047B0FA80F0704790FAA0F0704730BF46
:10027000704720BF7047000018484FF0FF01017021
:10028000002080F309881648016881F30888154822
:100290004FF08051016062B6FEE772B6EFF309805D
:1002A00028B1203880E8F00F0F490968086000B5D0
:1002B0000E4880475DF804EB0D480E490A7802703D
:1002C00009480D490A680260106890E8F00F203074
:1002D00080F309884EF0040E62B6704722ED00E00C
:1002E000B401002004ED00E0AC010020ED2A00087C
:1002F0004A0100204B010020B0010020704753EA62
:10030000020C00F069802DE9F04B4FF00006002B45
:100310001FBFB3FA83F503FA05F424FA05F65E402D
:1003200012BF1643B2FA82F502FA05F4C5F12005B0
:100330001EBF22FA05FC44EA0C04203556EA044CA0
:100340004FEA144418BF641C4FF000084FF0000936
:10035000904271EB030C39D3002919BFB1FA81F730
:1003600001FA07F6B0FA80F700FA07F6C7F120079E
:100370001EBF20FA07FC46EA0C062037B6FBF4FC49
:10038000A7EB0507103F07F01F0BCBF120060CFA77
:100390000BFB2CFA06F644BFB3460026202FA4BF61
:1003A0005E464FF0000B5BEA060C08BF4FF0010BF6
:1003B00019EB0B09ABFB027C48EB0608C01B06FBE4
:1003C00002CC0BFB03CC71EB0C01C1E70B460246E0
:1003D00041464846BDE8F08B13B54FF000004FF0A2
:1003E0000001AFF30080BDE81C40704710B5431C0E
:1003F00002E010F8011B71B18107FAD14FF0013210
:1004000002C88C1A8C4314EAC211F9D0C01A0A0629
:1004100003D0C01E10BDC01A10BD0A0401D0801E3A
:1004200010BD0902FCD0401E10BD421E12F8013F53
:10043000002BFBD111F8013B002B02F8013BF9D155
:10044000704770477047704770470000004870471A
:10045000707B00207546FFF7F9FFAE460500694640
:10046000534620F00700854618B020B5FFF7DCFEA4
:10047000BDE820404FF000064FF000074FF00008A5
:100480004FF0000B21F00701AC46ACE8C009ACE826
:10049000C009ACE8C009ACE8C0098D46704710B58A
:1004A0000446AFF300802046BDE81040FFF7A7BE2A
:1004B0007FB582B01E460A9D01A9154801F086F954
:1004C0000446BDF8040010B1002006B070BD9DF8D0
:1004D0000D1061729DF80E10A1729DF80F10E1725F
:1004E0009DF80C1021729DF8101021730298606025
:1004F000267000202061286808B92C6001E0686837
:1005000004616C602889401C28810120DDE700001F
:10051000182E002010B5012005F03EF9002005F04E
:100520003BF910BD08B5014600200090034800903B
:100530000098084400900098008808BD006C0040B6
:1005400008B500220092044A0092009A02440092E8
:10055000009A116008BD0000006C004000BFFEE77B
:10056000704770B500254FF4803400E0641E24B15C
:10057000802005F08BFB0028F8D014B9032528460D
:1005800070BD40F2FF5005F039FB2846F8E7000047
:10059000014600BF0748406B00F045000028F9D035
:1005A00040F2FF50034A9063104640690822104011
:1005B000C0B270470080014070B500251048446B00
:1005C00001E00F48446B04F045000028F9D004F026
:1005D000040028B10325042005F010FB284670BD57
:1005E00004F0010028B10125012005F007FB284691
:1005F000F5E740F2FF5005F001FB2846EFE7000069
:100600000080014070B500250B48446B01E00A48AA
:10061000446B04F045000028F9D004F0040028B130
:100620000325042005F0EAFA284670BD40F2FF5089
:1006300005F0E4FA2846F8E7008001402DE9F04192
:1006400006460F464FF000082248456B01E021485E
:10065000456B05F045000028F9D005F0040038B1DD
:100660004FF00308042005F0C9FA4046BDE8F081C8
:1006700005F0010030B14FF00108012005F0BEFA8D
:100680004046F3E705F0FCFAB04203D04FF0100803
:100690004046EBE740F2FF5005F0B0FA002005F0CD
:1006A00009FB044604F4604018B9200C3880404629
:1006B000DCE704F4005008B11320D7E704F48040CD
:1006C00008B11020D2E704F4004008B10F20CDE7B4
:1006D0004046CBE70080014070B500264FF48035DE
:1006E0000F48446B02E06D1E0D48446B04F045005A
:1006F00008B9002DF7D115B104F0040028B1032684
:10070000042005F07BFA304670BD04F0400028B1AB
:100710000026402005F072FA3046F5E73046F3E750
:100720000080014030B583790A2493FBF4F3303321
:100730001370837993FBF4F504FB15333033537056
:100740003A239370C37993FBF4F33033D370C379B6
:1007500093FBF4F504FB1533303313713A235371D3
:10076000037A93FBF4F330339371037A93FBF4F53C
:1007700004FB15333033D3712C2313720B7893FBA6
:10078000F4F3303353720B7893FBF4F504FB153319
:10079000303393720A23D3720023137330BD0000E9
:1007A00000F0805111B10349086001E0024948603E
:1007B00070470000040402400000024021B10268BA
:1007C00042F00102026004E002684FF6FE731A4034
:1007D0000260704701460020002201F0805313B1EF
:1007E000054B1A6801E0054B1A6802EA01030BB1D8
:1007F000012000E000207047000402400000024099
:1008000010B50022026847F6F0739A430C6A8B68B1
:1008100023430C6923434C6923438C692343CC69EC
:1008200023434C6A23438C6A23431A430260CB68F8
:1008300043600B6883604B68C36010BD7047000065
:1008400038B50446204600F031FA08B1002038BD22
:100850002568286908B90020606020680069206068
:100860006A462946034800F0E3FF2089401E2081A4
:100870000120ECE7182E00202DE9FC4107460D462B
:100880000026002400200090019008205D490860A7
:1008900010204860402088600020C8604FF48060CD
:1008A0000861084605F048FA1020FFF771FE04467B
:1008B00014B12046BDE8FC8153480088000451492A
:1008C000086037204860402088600020C8604FF4EE
:1008D00080600861084605F02FFA3720FFF758FEC0
:1008E00004460CB12046E5E74FF0FF304749086069
:1008F00008204860302088600220C860002008611D
:1009000001204861084605F091F900203D49086042
:1009100033204860402088600020C8604FF4806029
:100920000861084605F008FA3320FFF731FE044657
:100930000CB12046BEE70CE04FF4001005F0A6F91C
:1009400038B105F0F3F94DF82600761C012E00D9D8
:1009500006E02F48406B40F22A6108400028EBD0A7
:1009600000BF082005F092F928B1082005F046F9EB
:10097000042420469EE7022005F088F928B10220D1
:1009800005F03CF90224204694E7202005F07EF98A
:1009900028B1202005F032F9062420468AE74FF4DA
:1009A000007005F073F930B14FF4007005F026F9CE
:1009B000072420467EE740F2FF5005F01FF900981B
:1009C0000006009901F47F4140EA0120009901F4FA
:1009D0007F0140EA1120009940EA116068600198A7
:1009E0000006019901F47F4140EA0120019901F4D8
:1009F0007F0140EA1120019940EA116028602046F9
:100A000058E7000008600020A40000201C600020BF
:100A10000080014008B50121302004F09DFE4FF414
:100A2000F850ADF8000003208DF8020018208DF872
:100A300003006946094800F015F80420ADF80000ED
:100A40006946074800F00EF80121880204F054FEC0
:100A50000121022004F050FE08BD000000100140FA
:100A6000001401402DE9F041024600250026002037
:100A700000230024002791F803C00CF00F0591F823
:100A800003C00CF0100CBCF1000F03D091F802C0B1
:100A90004CEA050591F800C0BCF1000F31D0146894
:100AA00000202BE04FF0010C0CFA00F3B1F800C06D
:100AB0000CEA03069E4220D183004FF00F0C0CFA83
:100AC00003F7BC4305FA03FC4CEA040491F803C0A5
:100AD000BCF1280F06D14FF0010C0CFA00FCC2F853
:100AE00014C00AE091F803C0BCF1480F05D14FF0E3
:100AF000010C0CFA00FCC2F810C0401C0828D1D32D
:100B00001460B1F800C0BCF1FF0F34DD5468002060
:100B10002EE000F1080C4FF0010808FA0CF3B1F8D0
:100B200000C00CEA03069E4221D183004FF00F0C57
:100B30000CFA03F7BC4305FA03FC4CEA040491F8F1
:100B400003C0BCF1280F05D100F1080C08FA0CF81D
:100B5000C2F8148091F803C0BCF1480F07D100F12E
:100B6000080C4FF0010808FA0CF8C2F81080401C7D
:100B70000828CED35460BDE8F0814161704701611F
:100B80007047C160704700BFFEE7000038B50446FB
:100B9000607A08F0C9FB207A072811D1607A78B909
:100BA000607B5A280CDDE07A632809D110232FA23C
:100BB0002C21002000F034FB00F03CFA032038BD6B
:100BC000207A072819D1607AB8B9607B5A2814DDD9
:100BD00010232AA22C21002000F022FB10200090DC
:100BE000E07AA17A40EA012202232C21402000F081
:100BF000CDFA00F01FFA0220E1E7207A07280CD195
:100C0000607A092809D110231FA22C21002000F0AE
:100C100007FB00F00FFA0420D1E7207A05280BD15A
:100C2000607A48B910231CA22C21002000F0F8FAA9
:100C300000F000FA0520C2E7207A03280BD1607A81
:100C400048B9102314A22C21002000F0E9FA00F08A
:100C5000F1F90120B3E710230FA22C21002000F0AE
:100C6000DFFA00F0E7F90020A9E7000020202020AB
:100C70004D41535445522020202020002020202088
:100C80002049443A000000002020202020544F201A
:100C9000414444202020200020202020202020200B
:100CA000202020202020202000000000014608896C
:100CB00008B9012070470020FCE70146CA1701EB84
:100CC00092729210A1EB82022AB9642291FBF2F394
:100CD00002FB131232B94FF4C87291FBF2F302FB1C
:100CE00013120AB9012070470020FCE708B5012162
:100CF000402004F031FDF020ADF8000010208DF808
:100D0000030003208DF8020069460E48FFF7AAFE93
:100D10000121042004F020FD4020ADF80000102047
:100D20008DF8030003208DF8020069460648FFF79E
:100D300099FEF0210348FFF720FF40210248FFF70A
:100D40001CFF08BD0018014000080140002101609F
:100D500001814160704700BFFEE7704708B54FF45E
:100D6000C06000F057F831208DF8000000208DF8A9
:100D7000010001208DF802008DF80300684600F0A4
:100D800011F803208DF8000001208DF801000020EB
:100D90008DF8020001208DF80300684600F002F88B
:100DA00008BD000070B5002100230F22C47804B3F1
:100DB000154C246804F4E064C4F5E064210AC1F130
:100DC0000403CA40447804FA03F1847814402143B0
:100DD00009010E4C0678A155047804F01F05012482
:100DE000AC4005786D11AD0005F1E025C5F8004176
:100DF00009E0047804F01F050124AC40044D067896
:100E0000761145F8264070BD0CED00E000E400E0EE
:100E100080E100E002490143024A1160704700008E
:100E20000000FA050CED00E030B500240CE00025D0
:100E300006E00020074901EBC5010855681CC5B252
:100E4000802DF6DB601CC4B2082CF0DB00F0F2F859
:100E500030BD00006E5B0020F0B5144600267F28F0
:100E600001DC3F2900DDF0BD0B46CF1701EB5777C2
:100E7000FF10C7F10707FAB2CF1701EB5777FF1042
:100E8000A1EBC707FDB2C5F107070123BB40DEB2E6
:100E90004CB10A4B03EBC0039B5C3343074F07EB9A
:100EA000C007BB5408E0054B03EBC0039B5CB34396
:100EB000024F07EBC007BB5400BFD4E76E5B0020B6
:100EC0001FB50121182004F047FC4FF4C040ADF8D5
:100ED000080010208DF80B0003208DF80A0002A9ED
:100EE0004F48FFF7BFFD03214D48FFF74AFE0A2098
:100EF000ADF8080010208DF80B0003208DF80A00D3
:100F000002A94848FFF7AEFD0A214648FFF737FE21
:100F10008020ADF8080010208DF80B0003208DF81C
:100F20000A0002A94048FFF79DFD80213E48FFF7D7
:100F300026FE00203D49086003A8002164230A46DC
:100F4000CDE90010084601F091FE01203849C1F8B2
:100F500084010021AE2000F093F90021D52000F09B
:100F60008FF90021502000F08BF90021A82000F01B
:100F700087F900213F2000F083F90021D32000F001
:100F80007FF90021084600F07BF90021402000F0A5
:100F900077F900218D2000F073F90021142000F072
:100FA0006FF90021202000F06BF90021022000F0F1
:100FB00067F90021A12000F063F90021C02000F0B2
:100FC0005FF90021DA2000F05BF90021122000F027
:100FD00057F90021812000F053F90021EF2000F0A3
:100FE0004FF90021D92000F04BF90021F12000F049
:100FF00047F90021DB2000F043F90021302000F008
:101000003FF90021A42000F03BF90021A62000F0C8
:1010100037F90021AF2000F033F9FFF705FF1FBDBE
:10102000000C0140001801400014014084012342DB
:101030000000234230B500241CE004F1B001C8B226
:10104000002100F01DF90021084600F019F90021E7
:10105000102000F015F9002508E0084901EBC50152
:10106000085D012100F00CF9681CC5B2802DF4DB8D
:10107000601CC4B2082CE0DB30BD00006E5B0020B9
:101080002DE9F84F80460F4616461C46BA462046C4
:10109000E31704EB5373DB1021464FEAE47C04EBC7
:1010A0005C7C4FEAEC0CA4EBCC0CBCF1000F02D042
:1010B0004FF0010C01E04FF0000C6344224604EBBA
:1010C000D27C4FEA6C0C03FB0CF303F0FF0BA6F190
:1010D0002000C6B200254EE00C2C07D106EB4600DE
:1010E000274901EB8000405D009013E0102C05D1F2
:1010F000244800EB0610405D00900BE0182C07D14F
:1011000006EBC600204901EB8000405D009001E045
:10111000BDE8F88F4FF0000927E0009800F080004C
:1011200028B1394640460A9AFFF796FE09E00A9828
:1011300008B9012000E00020024639464046FFF78A
:101140008BFE00984006000E0090781CC7B2A7EBFB
:101150000A00A04205D1574608F1010000F0FF083F
:1011600006E009F1010000F0FF09B9F1080FD4DB36
:1011700000BF681CC5B25D45AEDB00BFC8E700001C
:10118000079B00087B9F00086BA500082DE9FF4F17
:1011900081B0074691461E460E9D4FF0000A00247E
:1011A00039E0301B401EC1B20A2008F0B1F8B9FB8B
:1011B000F0F00A21B0FBF1F201FB1208BAF1000FC6
:1011C00016D1701EA04213DDB8F1000F0ED1012020
:1011D000AB4605EBDB71491001FB04710090C8B20E
:1011E0002B4620220299FFF74BFF12E04FF0010A35
:1011F0000120AB4605EBDB71491001FB0471009047
:10120000C8B208F13001CAB22B460299FFF738FF85
:1012100000BF601CC4B2B442C3DB05B0BDE8F08FB0
:10122000F8B506460F4615461C4621E004EBD4717E
:101230004910C1F18001B14202DA00263819C7B263
:10124000C4F14000B84204DA002006460746FFF722
:10125000EBFD012000902A78234639463046FFF7FF
:101260000FFF204604EBD07106EB6101CEB26D1C7E
:1012700028787E2802DC28782028D7DAF8BD0000FC
:1012800010B5134B19600023124CC4F89C31002296
:1012900014E00023104C236000F080031BB10123F5
:1012A000241D236003E000230B4C241D2360012335
:1012B000094C23604306180E531CDAB2082AE8DBF7
:1012C0000123064C2360064CC4F88C3110BD00008D
:1012D0008C01234200802242B48121429C8122421F
:1012E0000000234215481648164817481748184862
:1012F0001848194819481A481A481B481B481C48DE
:101300001C481D481D481E481E481F481F482048AD
:10131000204821482148224822482348234824487D
:10132000244825482548264826482748274828484D
:1013300028482948294800BF70470000A4B7000882
:1013400004B7000808B700080CB7000810B7000879
:1013500014B7000818B700081CB7000820B7000829
:1013600024B7000828B700082CB7000830B70008D9
:1013700034B7000838B700083CB7000840B7000889
:1013800044B7000848B700084CB7000850B7000839
:1013900054B7000858B700085CB7000860B70008E9
:1013A00064B7000868B700086CB7000870B7000899
:1013B00074B7000878B700087CB7000880B7000849
:1013C00084B7000888B700088CB7000890B70008F9
:1013D00094B7000898B700089CB70008A0B70008A9
:1013E00010B50348006810B101480068804710BD7F
:1013F0000001002070B5044600F09EF800203F492F
:1014000008703F4908703F4908703F4908703F48DD
:1014100000680A21B0FBF1F03D4908603D480068D2
:1014200058B13D48056845B13A48066803E0761E64
:10143000002028602D1D002EF9D1002037490860BA
:1014400037490860374908603749086037490860FC
:10145000374908603749086002F01AFD02F0FAFDCA
:10146000204603F0EBF9208800B170BD204602F061
:10147000F1F9208800B1F8E7204602F03BF8208817
:1014800000B1F2E7204603F043FF208800B1ECE70B
:10149000204603F017F9208800B1E6E7204601F066
:1014A000B7FE208800B1E0E7204602F07BFA2088F2
:1014B00000B1DAE7204602F09DFA208800B1D4E7B7
:1014C000204602F057FB208800B1CEE7204602F00C
:1014D0000FFD208800B1C8E7204602F01FFF2088DA
:1014E00000B1C2E7204603F06FFF208800B1BCE7DF
:1014F00001F0B6FDFFF7F6FE00BFB6E714010020CD
:1015000015010020560100205C01002064B700088E
:101510005801002034B7000830B70008F40000205C
:10152000F8000020FC000020000100200401002041
:10153000080100200C0100200448006804490968E3
:1015400000EB8100001F03490860704730B70008B6
:1015500034B70008B401002008480078012800D002
:10156000704707480078FA2800DBF9E7044800785C
:10157000401C0349087000BFF2E70000150100207D
:101580001401002010B500242E480078012800D056
:1015900010BD00BFFEF75EFE044600BF2A4800787B
:1015A00028B900BF2046FEF759FE00BFF0E72648E5
:1015B0000078401E2449087008460078002805DDA0
:1015C00000BF2046FEF74AFE00BFE1E71F48007853
:1015D000002805DD00BF2046FEF740FE00BFD7E72C
:1015E00002F042FC1A4908700846007800EB4000FF
:1015F000184951F820001849086008460068174942
:101600000968884205D100BF2046FEF727FE00BFCB
:10161000BEE711480068D0F88C00401C0E490968EC
:10162000C1F88C000E480068401C0D4908604FF05E
:1016300080500C49086000BF2046FEF70FFE00BF37
:1016400000BFA5E71501002014010020560100206D
:101650004B01002018760020B0010020AC010020D2
:101660008001002004ED00E02DE9FF4F83B0044627
:1016700015461F46DDE91096002000904E48007880
:10168000002805DD45F2B960308007B0BDE8F08F75
:101690001DB945F2BB603080F7E7022F03DA45F24F
:1016A000BC603080F1E7B9F1040F03D245F2C160AC
:1016B0003080EAE74FF0030ABAF1000F0CD005EAD8
:1016C0000A0018B145F2BB603080DEE709EA0A0083
:1016D00010B145F2C1603080AB46A846781E80B29A
:1016E00001900020029007E0C844CBF80080C34678
:1016F0000298401C80B20290DDE901108842F3DBC1
:101700000020CBF8000000BF00BF00BFFEF7A2FD25
:10171000009000BF00BF29480078401C274908708E
:1017200000BF00BF0098FEF799FD00BF00BF00BFDB
:10173000234820600498A0606560E560A782678206
:10174000A4F81090204602F019F91E480088401CA9
:101750001C49088000BF00BF00BFFEF77BFD009062
:1017600000BF00BF15480078401E144908700846A5
:101770000078A0B914480088002809DD00BF00BF28
:101780000098FEF76BFD00BF00BF02F019FD0DE0F1
:1017900000BF00BF0098FEF761FD00BF06E000BF7C
:1017A00000BF0098FEF75AFD00BF00BF00BF002039
:1017B000308000BF69E700001401002056010020BE
:1017C0004D454D2038010020200100202DE9F04139
:1017D00004460D4600272CB945F2BF602880002042
:1017E000BDE8F08100BF00BFFEF734FD074600BF33
:1017F00000BFA08A58B900BF00BF3846FEF72EFDD3
:1018000000BF00BF45F2C26028800020E8E7E6681C
:101810003068E060A08A401EA08200BF00BF38464A
:10182000FEF71CFD00BF00BF002028803046D7E730
:101830002DE9F04104460E461546002724B945F22D
:10184000BF602880BDE8F0811EB945F2BE602880E7
:10185000F8E700BF00BFFEF7FDFC074600BF00BF72
:10186000A08A618A88420ADB00BF00BF3846FEF7C3
:10187000F5FC00BF00BF45F2BA602880E2E7E068EF
:101880003060E660A08A401CA08200BF00BF3846DE
:10189000FEF7E4FC00BF00BF0020288000BFD1E7B6
:1018A00010B5002420480078002800DD10BD1F4836
:1018B0000078002800DDF9E700BFFEF7CBFC044606
:1018C00000BF02F0D1FA1A4908700846007800EB10
:1018D0004000184951F82000174908600846006880
:1018E00016490968884205D100BF2046FEF7B6FCBC
:1018F00000BFDBE710480068D0F88C00401C0E49A0
:101900000968C1F88C000E480068401C0C4908604A
:101910004FF080500B49086000BF2046FEF79EFC48
:1019200000BF00BFC2E700001401002056010020E4
:101930004B01002018760020B0010020AC010020EF
:101940008001002004ED00E070B504460025174832
:101950000078002803DD46F66250208070BD1448F0
:101960000078012803D045F689602080F6E7114809
:101970000078FA2803DB45F209202080EEE700BF5B
:1019800000BFFEF767FC054600BF00BF09480078AE
:10199000401C0849087000BF00BF2846FEF75EFCE7
:1019A00000BF00BF0020208000BFD7E71401002047
:1019B00015010020560100202DE9F04105460C4696
:1019C0001646002700BF00BFFEF744FC074600BFD5
:1019D00000BF012D03D000200D49087002E0012056
:1019E0000B49087014B10B48046006E00A4800680F
:1019F0000A21B0FBF1F00749086000BF00BF38467C
:101A0000FEF72CFC00BF00BF00203080BDE8F08155
:101A10005C0100205801002064B7000870B504463E
:101A200000251F480078002803DD46F66550208019
:101A300070BD1C480078012803D045F689602080DD
:101A4000F6E71948007818B946F664502080EFE7A9
:101A500000BF00BFFEF7FEFB054600BF00BF1248F7
:101A60000078401E104908700846007800280ADDFA
:101A700000BF00BF2846FEF7F1FB00BF00BF46F6DF
:101A800063502080D4E700BF00BF2846FEF7E6FB86
:101A900000BF00BFFFF704FF0020208000BFC7E7A2
:101AA0001401002015010020560100202DE9F0410D
:101AB00004460E4617461D464FF0000818480078A9
:101AC000002804DD42F6E1602880BDE8F0811CB901
:101AD00045F6C3502880F8E700BF00BFFEF7BAFB09
:101AE000804600BF00BF0F48206027620020606270
:101AF000666004F1080002F0D1F8204602F0F6FB1F
:101B000009480088401C0849088000BF00BF4046C3
:101B1000FEF7A4FB00BF00BF0020288000BFD4E771
:101B20001401002053454D41640100202DE9F04788
:101B300088B00646894690461C46109D4FF0000A24
:101B40006E480078002806DD46F2AE10288000209E
:101B500008B0BDE8F08726B945F6C35028800020BC
:101B6000F6E7B8F1000F03D0B8F5004F02D100E05E
:101B700000BF04E045F6256028800020E8E700BFAC
:101B80005F493068884204D045F6C4502880002060
:101B9000DEE70CB10020206000BF00BFFEF75AFB5B
:101BA000824600BF00BF306A88B1306A401E306292
:101BB0000CB1706A2060376A00BF00BF5046FEF764
:101BC0004DFB00BF00BF002028803846C0E708F466
:101BD000004060B1376A00BF00BF5046FEF73EFBD1
:101BE00000BF00BF46F2B01028803846B0E7454835
:101BF000007800280BDD00BF00BF5046FEF72EFB2B
:101C000000BF00BF46F6635028800020A0E700BF59
:101C10003C480078401C3B49087000BF00BF50465C
:101C2000FEF71CFB00BF00BF00BF4B46062231463B
:101C3000684601F0ABFF00BF00BF00BFFEF70AFB24
:101C4000824600BF00BF2F480078401E2D49087013
:101C500000BF00BF5046FEF701FB00BF00BF00BF42
:101C6000FFF71EFE00BF00BFFEF7F4FA824600BF7A
:101C700000BF2548006890F8350030B101280CD02D
:101C800002281AD0032821D110E01CB11E48006898
:101C9000006C20600020288024E01CB11A480068F5
:101CA000006C206046F2A91028801BE00CB10020D7
:101CB000206047F2D920288014E01CB11248006847
:101CC000006C206045F6C25028800BE046F62B6081
:101CD000288000BF00BF5046FEF7C0FA00BF00BF1B
:101CE000002035E700BF376A00BF00BF5046FEF74F
:101CF000B5FA00BF00BF38462AE7000014010020F3
:101D000053454D4156010020AC0100202DE9FF4113
:101D100005460F46144635B945F6C35020800020CD
:101D200004B0BDE8F08112492868884204D045F625
:101D3000C45020800020F3E700260E4800780028D9
:101D40000CDD0020034602462946CDE901760394C6
:101D50000090074801F006FC0020E1E723463246E8
:101D60003946284602F0E6FA80464046D8E70000A9
:101D700053454D41140100202DE9F04104460E4623
:101D800015464FF000081A480078002804DD46F692
:101D9000C6502880BDE8F0811CB945F6C3502880A4
:101DA000F8E714492068884203D045F6C4502880DB
:101DB000F0E70020288000BF00BFFEF74BFA804606
:101DC00000BF00BF206A08B1266208E004F10807DE
:101DD000388908B9266202E047F25E10288000BF09
:101DE00000BF4046FEF73AFA00BF00BF00BFD1E790
:101DF0001401002053454D4110B5044612480078A7
:101E0000E8B902F031F81149087008460078104925
:101E100008700E48007800EB40000E4951F8200091
:101E20000D490860084600680C4908600120064911
:101E30000870FEF721FA43F69920208002E045F66B
:101E40008A60208010BD0000150100204B01002099
:101E50004A01002018760020B0010020AC010020CB
:101E60002DE9F04107464FF000080020274908609F
:101E700027490880274908602749086027490860E2
:101E8000274804681FE000BF00BFFEF7E3F9804663
:101E900000BF00BF002044F8780F60636061E07409
:101EA000002121626162A162E162E061783C04F19B
:101EB0006406B081D4F8BC4000BF00BF4046FEF7C6
:101EC000CDF900BF00BF002CDDD103F003F903F012
:101ED00077FB1448056812E000BF00BFFEF7BAF9AF
:101EE000804600BF00BF05F120060020B081AD692B
:101EF00000BF00BF4046FEF7B1F900BF00BF002D94
:101F0000EAD100203880BDE8F081000028010020DF
:101F10002201002078010020900100209C01002077
:101F20008401002050010020F8B5044600266A46CE
:101F30000021022000F00EFEBDF8000018B1BDF82F
:101F400000002080F8BD00BF00BFFEF783F9064601
:101F500000BF00BF00201E49086000BF00BF304620
:101F6000FEF77CF900BF00BF00251A4800681A4937
:101F70000968884205D91748006817490968B0FB05
:101F8000F1F525B9134800680A21B0FBF1F56A465E
:101F90000021284600F0DEFD00BF00BFFEF75AF921
:101FA000064600BF00BF00200C49086008480068D2
:101FB0000B49086001200B49087000BF00BF304684
:101FC000FEF74CF900BF00BF0020208000BFB9E73A
:101FD0006801002064B700084CB7000878010020B1
:101FE0006C0100207401002010B50348006810B196
:101FF00001480068804710BD040100202DE9FF4F13
:1020000087B004469046DDE91BA5DDE91496179FCD
:102010000020039087480078002805DD47F24A1029
:1020200028800BB0BDE8F08F1CB947F2AD102880B6
:10203000F7E7B8F1000F03D147F24F102880F0E71F
:102040001EB946F62C602880EBE77B480068874283
:1020500003D246F62D602880E3E71698B84203D3F2
:1020600046F62E602880DCE7B9F1400F03D346F234
:1020700073202880D5E7B9F1000F06D16F4884425C
:1020800003D046F273202880CBE7B9F13F0F06D189
:102090006B48844203D046F273202880C1E7204673
:1020A00002F0DCFB002028800AF0010090B10AF069
:1020B000020078B105960020069008E000210598FE
:1020C00001600598001D05900698401C0690069832
:1020D000B842F3D3169806EB80000490CDE9007A5D
:1020E00032464046049B0A9900F0DCFB0590C4F898
:1020F00028800A98E0620898206284F83790059852
:1021000020600498A06019986065199818B94D4826
:102110000068A06501E01998A0651A986060666281
:10212000A763A4F83CA04FF0000B08E0002104F1E5
:102130007C0040F82B100BF101001FFA80FBBBF173
:10214000000FF3D004F16400189901F09DFC2046C3
:1021500000F082F800BF00BF00BFFEF77BF80390DD
:1021600000BF00BF38480078401C3749087000BFE6
:1021700000BF0398FEF772F800BF00BF00BF94F8DD
:10218000370001F091FE204601F0ACFF204602F03E
:102190001BFB2E480088401C2C4908802C480078E6
:1021A00001282DD000BF00BF00BFFEF753F80390F9
:1021B00000BF00BF24480078401E2349087008462D
:1021C0000078A0B923480088002809DD00BF00BFBF
:1021D0000398FEF743F800BF00BF01F0F1FF0DE0E8
:1021E00000BF00BF0398FEF739F800BF06E000BF4C
:1021F00000BF0398FEF732F800BF00BF00BF10E732
:1022000000BF00BF00BFFEF725F8039000BF00BF6E
:102210000D480078401E0C49087000BF00BF0398AD
:10222000FEF71CF800BF00BF00BFFFF739FB00BF7F
:10223000F7E600001401002060B700085075002088
:1022400088740020580100205601002088010020D9
:10225000150100202001002010B504460348006845
:1022600018B1204601490968884710BDF4000020D4
:1022700070B504460D46002667480078002803DD47
:1022800047F24E10288070BD6448844203D147F263
:102290004C102880F7E76248844203D147F24D1082
:1022A0002880F0E77CB900BF00BFFDF7D3FF0646EA
:1022B00000BF00BF5B48046800BF00BF3046FDF7A9
:1022C000CDFF00BF00BF00BF00BF00BFFDF7C2FFD2
:1022D000064600BF00BF54480078401C52490870B1
:1022E00000BF00BF3046FDF7B9FF00BF00BF00BF11
:1022F00094F8360008282DD2DFE800F004090E100B
:10230000080A0F11204601F02DFF54E053E000BFF2
:10231000204602F0C3FE4EE000BF00BF00BF2046D3
:1023200002F0BCFE94F83400082810D2DFE800F078
:1023300004070508090A0B0600BF00BF08E000BF3C
:1023400000BF00BF00BF204601F0E0FC00E000BF7E
:1023500000BF30E000BF00BF00BFFDF77BFF0646B7
:1023600000BF00BF30480078401E2F490870084663
:102370000078A0B92D480088002809DD00BF00BF03
:102380003046FDF76BFF00BF00BF01F019FF0DE005
:1023900000BF00BF3046FDF761FF00BF06E000BF91
:1023A00000BF3046FDF75AFF00BF00BF00BF46F632
:1023B0002A60288067E700BF04F1640001F042FB57
:1023C000204600F037F8204602F016FA1848008838
:1023D000401E17490880204602F040FAFF2084F88A
:1023E000360000BF00BF00BFFDF734FF064600BF48
:1023F00000BF0D480078401E0B49087000BF00BFA9
:102400003046FDF72BFF00BF00BF00BFFFF748FAC3
:102410000020288000BF36E71401002088740020C7
:1024200050750020AC010020560100202001002042
:102430008801002010B504460348006818B1204602
:1024400001490968884710BDF800002070B50446AE
:102450000D46002658480078002803DD47F2551045
:10246000288070BD00BF00BFFDF7F4FE064600BF28
:1024700000BF1CB15148006884420AD100BF00BFB0
:102480003046FDF7EBFE00BF00BF47F25710288033
:10249000E7E70020288094F8360008287BD2DFE8A0
:1024A00000F0040506071243556700BF00BF00BFD8
:1024B00000BF00BF3046FDF7D1FE00BF00BF47F2AE
:1024C0005310288072E000BF3D480078401C3C4912
:1024D000087000BF00BF3046FDF7C0FE00BF00BF60
:1024E00000BF14F88A0F401E207014F88A0928B91A
:1024F000002084F83600204602F018FB00BF00BF21
:1025000000BFFDF7A7FE064600BF00BF2C480078BD
:10251000401E2B49087000BF00BF3046FDF79EFEED
:1025200000BF00BF00BF41E014F88A0F401E2070BA
:1025300014F88A0910B9012084F8360000BF00BFE2
:102540003046FDF78BFE00BF00BF2FE014F88A0F66
:10255000401E207014F88A0910B9022084F8360051
:1025600000BF00BF3046FDF779FE00BF00BF1DE091
:1025700014F88A0F401E207014F88A0910B903203D
:1025800084F8360000BF00BF3046FDF767FE00BF8D
:1025900000BF0BE0FFE700BF00BF3046FDF75EFE67
:1025A00000BF00BF46F62A6028805AE700BFFFF749
:1025B00077F900BF55E7000014010020AC010020AE
:1025C0005601002010B504460348006818B12046A3
:1025D00001490968884710BDFC0000202DE9F0473B
:1025E0000746884614461D464FF000097548007896
:1025F000002805DD46F2AE1028800020BDE8F087F7
:102600000CB10020206000BF00BFFDF723FE814613
:1026100000BF00BF6C480068406C98B36A4800680F
:10262000406C401E68490968486467480068466C09
:102630001CB165480068006C206063480068006C4D
:10264000404261490968C1F8A8005F480068D0F8B5
:10265000A8005D490968D1F8AC10884207D95A48EA
:102660000068D0F8A80058490968C1F8AC0000BF5C
:1026700000BF4846FDF7F2FD00BF00BF00202880E4
:102680003046BBE7FFE708F4004058B100BF00BF89
:102690004846FDF7E3FD00BF00BF46F2B0102880BA
:1026A0000020ABE74948007800280BDD00BF00BFE1
:1026B0004846FDF7D3FD00BF00BF46F663502880B3
:1026C00000209BE700BF41480078401C3F4908704C
:1026D00000BF00BF4846FDF7C1FD00BF00BF00BFFF
:1026E0003B4607220021084601F050FA00BF00BF18
:1026F00000BFFDF7AFFD814600BF00BF3348007843
:10270000401E3249087000BF00BF4846FDF7A6FDD5
:1027100000BF00BF00BFFFF7C3F800BF00BFFDF759
:1027200099FD814600BF00BF2748006890F835003A
:1027300020B1012824D0032832D12AE0ECB122486C
:102740000068006C206020480068006C40421E4910
:102750000968C1F8A8001C480068D0F8A8001A4908
:102760000968D1F8AC10884207D917480068D0F83A
:10277000A80015490968C1F8AC000020288013E0C2
:102780001CB111480068006C206046F2A910288036
:102790000AE00CB10020206047F2D920288003E035
:1027A00046F62B60288000BF00BF07480068466CD3
:1027B00000BF00BF4846FDF751FD00BF00BF3046D7
:1027C0001CE7000014010020AC010020560100208D
:1027D0002DE9F04705460E4617461C464FF0000A05
:1027E0002E480078002804DD47F258102080BDE80C
:1027F000F0871EB946F2D5202080F8E71FB946F2CF
:10280000D5202080F3E700BF00BFFDF723FD8246FF
:1028100000BF00BF0DB922480568286868B900BF2D
:1028200000BF5046FDF71AFD00BF00BF002030601A
:10283000386047F252102080D9E795F83C0000F04C
:10284000010068B900BF00BF5046FDF707FD00BF9B
:1028500000BF00203060386047F254102080C6E787
:1028600000BF00BF5046FDF7F9FC00BF00BF4FF0AE
:102870000008D5F8249003E009F1040908F10108E3
:10288000D9F800000028F7D0C6F80080A86BA0EBAC
:10289000080038600020208000BFA8E71401002055
:1028A000AC010020F0B50446DDE9055602EB8500D9
:1028B0004FF0807C071F3846C7F800C0071F384616
:1028C0003C60DFF89CC0071F3846C7F800C04FF0D7
:1028D000123C071F3846C7F800C04FF0033C071FE3
:1028E0003846C7F800C04FF0023C071F3846C7F80B
:1028F00000C0071F38463B60071F384639604FF05D
:10290000113C071F3846C7F800C04FF0103C071FA6
:102910003846C7F800C04FF0093C071F3846C7F8D3
:1029200000C04FF0083C071F3846C7F800C04FF002
:10293000073C071F3846C7F800C04FF0063C071F8A
:102940003846C7F800C04FF0053C071F3846C7F8A7
:1029500000C04FF0043C071F3846C7F800C0F0BD68
:10296000494B000870B504460D4600265A480078C9
:10297000002803DD47F25C10288070BD5748844270
:1029800003D147F25A102880F7E75548844203D113
:1029900047F25B102880F0E700BF00BFFDF75AFC4C
:1029A000064600BF00BF0CB94E4804684D48006899
:1029B00084420ED14C48007800280ADD00BF00BFD9
:1029C0003046FDF74BFC00BF00BF46F66350288041
:1029D000D3E70020288094F8360008286CD2DFE87E
:1029E00000F004313F4D5B5C5D5E00BF3E48007807
:1029F000401C3D49087000BF00BF3046FDF72EFC6B
:102A000000BF00BF00BF042084F83600012084F816
:102A10008A00204601F0A6FB00BF00BF00BFFDF703
:102A200019FC064600BF00BF2F480078401E2E4903
:102A3000087000BF00BF3046FDF710FC00BF00BFAC
:102A400000BF44E0052084F83600012084F88A00A5
:102A500000BF00BF3046FDF701FC00BF00BF36E0FD
:102A6000062084F83600012084F88A0000BF00BFE9
:102A70003046FDF7F3FB00BF00BF28E0072084F8D5
:102A80003600012084F88A0000BF00BF3046FDF701
:102A9000E5FB00BF00BF1AE000BF00BF00BF94F815
:102AA0008A00401C84F88A0000BF00BF3046FDF752
:102AB000D5FB00BF00BF0AE000BF00BF3046FDF7F6
:102AC000CDFB00BF00BF46F62A60288055E700BF57
:102AD000FEF7E6FE00BF50E71401002088740020D6
:102AE00050750020AC0100205601002010B516489A
:102AF000006810B11448006880470024134800683B
:102B000013490968884219D010480068D0F8940029
:102B1000201A0E490968C1F890000C48006850F866
:102B2000983F406809490968D1F89010591840F158
:102B30000000064A126842F8981F50600448006876
:102B4000C0F8944010BD000008010020AC01002036
:102B5000B00100202DE9F04105460E46144600273D
:102B60003F480078002804DD47F275202080BDE84A
:102B7000F0813C480078002803DD46F66350208051
:102B8000F5E736B1022E05D0042E0AD0082E09D161
:102B900001E000BF00BF1DB947F27E202080E6E7BC
:102BA00004E003E045F625602080E0E700BF00BFB9
:102BB00000BF00BFFDF74EFB074600BF00BF29481E
:102BC0000078401C2749087000BF00BF3846FDF759
:102BD00045FB00BF00BF00BF01202349096881F801
:102BE00036002346324629461F48006802F078F92D
:102BF0002088A8B100BF00BF00BFFDF72BFB074630
:102C000000BF00BF17480078401E1649087000BF7B
:102C100000BF3846FDF722FB00BF00BF00BFA6E79C
:102C20001148006801F09EFA00BF00BF00BFFDF729
:102C300011FB074600BF00BF0A480078401E094943
:102C4000087000BF00BF3846FDF708FB00BF00BF9B
:102C500000BFFEF725FE0020208000BF87E70000B0
:102C60001401002056010020AC0100202DE9FF5F77
:102C700005460E4617469846DDE90EA40020009052
:102C800072480078002804DD47F275202080BDE8F6
:102C9000FF9F6F480078002803DD46F663502080D0
:102CA000F5E70AF00E0BBBF1000F09D0BBF1020FE4
:102CB00007D0BBF1040F10D0BBF1080F0ED101E01B
:102CC00000BF00BFB8F1000F06D12FB926B91DB95A
:102CD00047F27E202080DAE704E003E045F6256035
:102CE0002080D4E700BF2AF01E0008B1012000E0D8
:102CF000002003900398012803D145F62560208029
:102D0000C5E7CAF3001002900298C0B9B8F57A7FFF
:102D100003D347F27B202080B9E73B2F03DD47F246
:102D20007A202080B3E73B2E03DD47F27920208014
:102D3000ADE7632D12DD47F278202080A7E742F24D
:102D40000F70864203DD47F2792020809FE7B5F5BA
:102D50007A7F03DB47F27820208098E73D48D0F85F
:102D600000904FF4FA70B0FBF9F0404400FB09F01A
:102D70004FF47A71B0FBF1F14FF461606843C6EB38
:102D8000061200EB8200384400FB09100190019804
:102D9000002856D000BF00BF00BFFDF75BFA0090CF
:102DA00000BF00BF2A480078401C2949087000BFB6
:102DB00000BF0098FDF752FA00BF00BF00BF01201E
:102DC0002549096881F8360023465A462248019968
:102DD000006802F085F82088A8B100BF00BF00BFDE
:102DE000FDF738FA009000BF00BF19480078401E78
:102DF0001749087000BF00BF0098FDF72FFA00BF09
:102E000000BF00BF43E71448006801F0ABF900BF02
:102E100000BF00BFFDF71EFA009000BF00BF0C48C6
:102E20000078401E0A49087000BF00BF0098FDF7F7
:102E300015FA00BF00BF00BFFEF732FD0020208062
:102E400002E047F27E20208000BF20E7140100202E
:102E50005601002064B70008AC01002010B586B010
:102E600000F01CF8002405A800210091CDE9011410
:102E700003900748007800EB4000064A02EB80010F
:102E800000231A46044800F06DFB06B010BD000098
:102E90004A010020187600205449434B10B50348DE
:102EA000006810B101480068804710BD0C01002087
:102EB0002DE9F84F0446884616461F46DDE90BAB60
:102EC000DDF828900D9D002000902948007800280A
:102ED00004DD47F243302880BDE8F88F1CB945F681
:102EE000C3502880F8E7B9F1010F08D0B9F1020FFB
:102EF0000BD11FB947F240302880EDE709E01EB939
:102F000047F23F302880E7E703E045F62560288058
:102F1000E2E700BF00BF00BFFDF79CF9009000BFD3
:102F200000BF012084F82A0012482060C4F8048001
:102F300026620020A061E0616762A4F82890C4F8CE
:102F400008A0C4F80CB020616061204602F028FAA5
:102F500009480088401C0849088000BF00BF00984D
:102F6000FDF77CF900BF00BF0020288000BFB3E759
:102F700014010020544D52209801002038B5054618
:102F80000C4627480078002804DD47F243302080B3
:102F9000002038BD25B947F2423020800020F8E7F4
:102FA00020492868884204D045F6C450208000207B
:102FB000EFE76846FEF7C8FC95F82A0000B3012841
:102FC00012D0022802D0032822D10EE0284602F0B7
:102FD00065FB0021284602F08BFA6846FEF71EFDCD
:102FE000002020800120D4E700BF0021284602F005
:102FF0007FFA6846FEF712FD002020800120C8E716
:103000006846FEF70BFD47F23D3020800020C0E708
:103010006846FEF703FD47F2413020800020B8E704
:1030200014010020544D522010B5002400BF00BFF1
:10303000FDF710F9044600BF00BF08480078401CA7
:103040000649087000BF00BF2046FDF707F900BF22
:1030500000BFFFF703FFFEF795FA10BD1401002033
:1030600024482548254826482648274827482848F0
:103070002848294829482A482A482B482B482C48C0
:103080002C482D482D482E482E482F482F48304890
:103090003048314831483248324833483348344860
:1030A0003448354835483648364837483748384830
:1030B0003848394839483A483A483B483B483C4800
:1030C0003C483D483D483E483E483F483F484048D0
:1030D00040484148414842484248434843484448A0
:1030E000444845484548464846484748474800BF41
:1030F00070470000A8B7000810B90008AAB7000878
:10310000ABB70008ACB70008B0B70008B4B7000808
:10311000B1B70008DCB70008DDB70008DEB700086B
:10312000E0B70008E2B70008E4B70008E6B7000817
:10313000E8B7000808B800080AB800080CB800088A
:103140000EB8000810B8000812B8000814B800083B
:1031500040B8000841B8000842B8000844B8000868
:1031600046B8000847B8000848B800084AB8000840
:103170004CB800084EB8000850B8000852B8000813
:1031800054B8000884B8000885B8000886B800085C
:1031900087B8000888B800088AB800088CB800080A
:1031A000B4B80008B5B80008B6B80008B7B8000849
:1031B000B8B80008BAB80008BCB80008C0B8000821
:1031C000C1B80008C2B80008C3B80008C4B80008F5
:1031D000C5B80008C6B80008C7B80008C8B80008D5
:1031E000CAB80008CBB80008CCB80008CEB80008B0
:1031F000D0B80008D1B80008D4B8000808B9000851
:1032000009B900080AB900080CB900080EB900088D
:103210000021034A1160034A1180018070470000B9
:103220002C010020300100202DE9F04F85B004462C
:10323000894692469B46DDF838800020009000BF0A
:1032400000BFFDF707F8009000BF00BFBAF1000F04
:103250000AD0BAF1010F0DD0BAF5004F05D06FF4C6
:103260000040504460B906E000BF206A40EA09000F
:10327000206214E000BF206A20EA090020620EE00C
:1032800000BF00BF0098FCF7E9FF00BF00BF45F694
:103290002560A8F80000002005B0BDE8F08F00BF51
:1032A000C4F824B004F1080001900198008958B9CD
:1032B00000BF00BF0098FCF7D1FF00BF00BF002097
:1032C000A8F80000206AE7E700BF61480078401CCA
:1032D0005F49087000BF00BF0098FCF7BFFF00BF48
:1032E00000BF00BF01980768BD687FE07868029062
:1032F00095F8880000F00F0003900398012821D072
:1033000002282ED0042802D0082836D10EE0206AE8
:10331000D5F8801000EA0106D5F88000B04204D14B
:103320005A463146284600F097F859E0206AD5F809
:10333000801000EA010626B15A463146284600F0C0
:103340008BF84DE0D5F88000216A20EA0106D5F817
:103350008000B04204D15A463146284600F07CF83D
:103360003EE0D5F88000216A20EA010626B15A46DF
:103370003146284600F070F832E000BF00BF00BFC1
:10338000FCF768FF009000BF00BF31480078401E86
:103390002F49087008460078A0B92E4800880028F8
:1033A00009DD00BF00BF0098FCF758FF00BF00BF59
:1033B00000F006FF0DE000BF00BF0098FCF74EFFD5
:1033C00000BF06E000BF00BF0098FCF747FF00BF4A
:1033D00000BF00BF43F6FF20A8F8000000205BE715
:1033E00000BF029F0FB1BD6800E00025002D7FF4F3
:1033F0007DAF00BF00BF00BFFCF72CFF009000BFF7
:1034000000BF13480078401E1149087000BF00BF7C
:103410000098FCF723FF00BF00BF00BF0AF4004084
:1034200008B9FEF73DFA00BF00BFFCF713FF00909C
:1034300000BF00BF206A049000BF00BF0098FCF7E7
:103440000DFF00BF00BF0020A8F80000049823E78C
:10345000560100202001002070B504460E46154696
:1034600034342665002060702070E560A078343C1C
:10347000082816D2DFE800F0040508090706101135
:1034800000BF00BF00BF0DE000BF204601F04EFBB3
:10349000002084F8360005E000BF042084F83600E0
:1034A00000E000BF00BF204600F030FC70BD00000F
:1034B000002400BF19E000BF00BFFCF7CBFE0446AC
:1034C00000BF00BF09480068401C08490860084860
:1034D0000068401C0649086000BF00BF2046FCF79A
:1034E000BDFE00BF00BFFDF77BFFE4E71001002039
:1034F0006801002010B58AB0044600200E4908601B
:10350000032000210591CDE90704069108460B49E7
:1035100009680B4A12680B4B1B68CDE90132CDE9F3
:1035200003103F200023084A08A100900C48FEF732
:1035300065FD0AB010BD0000100100200CB70008A6
:1035400008B7000804B70008B134000875432F4FCE
:10355000532D4949492049646C65205461736B00BF
:10356000887400202DE9F84F04460D4616461F4684
:10357000DDE90BABDDF82890DDF834800020009009
:1035800000BF00BFFCF766FE009000BF00BF2A48E6
:1035900000882A49098888423BDA27480088401C6D
:1035A00025490880264800880988884203DA22488D
:1035B0000088234908802348006804602148006887
:1035C000856020480068C6601E48006807821D4864
:1035D0000068C0F814901B480068A0F818A01948AB
:1035E0000068C0F81CB017480068406815490860BA
:1035F000012015490881154808604860002000F046
:1036000053FC13480078134908700020A8F8000004
:1036100008E011480088401C0F49088044F25360BC
:10362000A8F8000000BF00BF0098FCF717FE00BF1D
:1036300000BFBDE8F88F00002001002018B7000887
:10364000220100201801002018760020507500206B
:103650004A0100204C010020240100202DE9FE4FEA
:103660004FF0000B00BF00BFFCF7F4FD834600BF26
:1036700000BF47480068D0F8009045480068866859
:1036800043480068C76842480068B0F810A0404846
:103690000068D0F814803E480068058B3C480068FC
:1036A000C4693B48006840683949086000BF00BFF2
:1036B0005846FCF7D3FD00BF00BF3649A9EB010017
:1036C00089452DD00ADC3448484410B333490844B6
:1036D00060B133490844002856D12BE031490844F1
:1036E00078B33149084400284ED108E002A82346A7
:1036F0002A46414600903046FFF796FD45E002A875
:103700002B4652463946CDE90040304600F0FCFBDE
:103710003BE002AB22462946304600F00BFE34E087
:1037200002A82B4652463946CDE90040304601F00A
:10373000F7F82AE002AB22462946304601F010FA9B
:1037400023E0FFE71949097801EB4101184A02EB30
:10375000810000F063FD02AB22460021154801F014
:10376000FFF915480068401E1349086008460068C4
:1037700048B9124800680860002402AB22460021C4
:103780000F4801F0EDF900E000BF00BFBDE8FE8F7B
:103790001C010020544D5347ADBAB2BE0DF90BFACF
:1037A000F2F8F7FF000410FC03F4FDF54C010020D3
:1037B00018760020E0790020A8010020A401002054
:1037C000A87A0020002700BF3CE0002638E01E4811
:1037D0000088C0B900BF00BFFCF73CFD074600BF32
:1037E00000BF0020194908810860486000F06EFBA6
:1037F00000BF00BF3846FCF731FD00BF00BFFEF739
:103800004FF801261CE00025FFF728FF6C42104806
:103810000068844201D90E48046000BF00BFFCF775
:1038200019FD074600BF00BF07480088401E064933
:10383000088000BF00BF3846FCF710FD00BF00BF86
:10384000002EC4D0C1E7000020010020187600201F
:1038500028010020F0B589B00546002031490880D4
:103860003148006820B944F25260288009B0F0BDA8
:103870002E480088022803DA44F254602880F5E7D5
:1038800000202B4908602848046826462036002777
:103890000CE0284820600020A060E0602082606189
:1038A0002083666020342036781C87B21F48008849
:1038B0008742EEDB203C1C48066866601E480660B6
:1038C0001E48066000201E4908801E4908801E48C8
:1038D000006818B946F62C602880C7E71B480068C6
:1038E0001B490968884203D246F62D602880BDE74F
:1038F000032000210591CDE90705069113480068D2
:10390000144A1268104B1B68CDE90301CDE901325E
:1039100000910B46104A11A11748FEF76FFB00BF3C
:10392000A4E700002401002014B7000818B700081D
:10393000280100204E4F4E45180100201C01002098
:10394000200100202201002020B7000828B700082D
:1039500060B7000824B70008C537000875432F4F2B
:10396000532D4949492049535220517565756520A9
:103970005461736B000000005075002000218161CC
:103980000749096811B90021C16105E004490968C6
:10399000C1610349096888610149086070470000F6
:1039A000340100200021034A1160034A1180018084
:1039B00070470000340100203801002070B5024635
:1039C0000B461046114610315E1EB5B2002408E0C9
:1039D0000160002646600681C66010301031661C0A
:1039E000B4B2AC42F4DB0026066046600681C660D5
:1039F00070BD000010B504460F48006818B945F2C4
:103A00001E70208010BD0D48008818B945F21D7049
:103A10002080F7E70948018807480068FFF7CEFFD4
:103A2000054800680649086004480088888000202E
:103A3000C880208000BFE5E744B700083CB7000815
:103A40003C01002010B5014648894B89002B17DD49
:103A50000A680C4B1B6813600A4C4B6823602346B2
:103A6000DB884C891B1B074CE38023469B884C89D1
:103A70002344044CA38000234B818B810B604B605B
:103A800010BD00003C0100200181002242818281A2
:103A900002604260704700002DE9F0410D46DDE90B
:103AA0000674B0F80AC0B0F80880C44505DB46F2D9
:103AB000935CA4F800C0BDE8F081DFF8B4C0BCF8A6
:103AC00004C0BCF1000F04D145F21D7CA4F800C075
:103AD000F1E7DFF89CC0DCF80010DFF89480D1F843
:103AE00000C0C8F800C0C446BCF804C0ACF1010C6A
:103AF000A8F804C0C446BCF806C00CF1010CA8F834
:103B000006C0B0F80AC0BCF1000F06D101604160E8
:103B10004FF0010CA0F80AC017E003F0100CBCF144
:103B2000000F07D1066831604FF0000CC1F800C0EB
:103B3000016004E0D0F804C0C1F800C04160B0F8F2
:103B40000AC00CF1010CA0F80AC0B0F80AC0B0F825
:103B50000C80C44503DDB0F80AC0A0F80CC04D606D
:103B60000A81CF604FF0000CA4F800C000BFA2E7AC
:103B70003C0100200021034A1160034A11800180AA
:103B80007047000044010020480100202DE9F04169
:103B900005460C4616461F461548006880F83460F6
:103BA00000201349096881F835003946104800683B
:103BB00000F0EEFD6CB104F10808EC60012229462A
:103BC0000B48006800F016F82946404600F06BF8F4
:103BD00006E0002006490968C887054909680863A6
:103BE00003480168204600F019F8BDE8F0810000A4
:103BF000AC01002010B5C287016300230AE0002455
:103C00004C600C600C614C610C83CC61886020318D
:103C10005C1CA3B29342F2DB10BD000030B548B18A
:103C20004568C1F8C05000F10804226893681D6A15
:103C3000C56113E091F83450022D02D0072D08D150
:103C400003E007A5C1F8C05007E007A5C1F8C050C0
:103C500003E008A5C1F8C05000BF00BF30BD0000A0
:103C60005461736B205100005461736B2053656D78
:103C7000000000002000000030B507A5C1F8C050CA
:103C800000F1080422681AB193681D6AC56101E059
:103C900001A5C56130BD00002000000000210160C9
:103CA000416001817047F0B58E6896F837500789FA
:103CB0003FB90127078100274F600F600160416015
:103CC00023E007897F1C0781026806E0946894F866
:103CD0003770AF4200DD02E05268002AF6D100BF23
:103CE00032B900274F6043680B60596041600CE0B7
:103CF00017682FB9116000270F604A60016004E067
:103D000013680B604A6059601160F0BD2DE9F04105
:103D10000446256BE68F0AE0D5F80C8008F1080709
:103D20002946384600F00AF82035701E86B2002E6B
:103D3000F2DC0020E0872063BDE8F08110B5048943
:103D4000012C03D100240460446011E00C6824B904
:103D50004A680024146002600AE04C6824B90B68C9
:103D600000245C60436003E00B684A685A6013609B
:103D70000489641E048100244C600C6010BD2DE990
:103D8000F84306460C4617469846089D94F83600B8
:103D9000082850D2DFE800F00405080906072B2C9C
:103DA00000BF00BF00BF47E000BF94F83400032805
:103DB00007D143463A4621463046009500F03FF889
:103DC00003E0E765A4F86080256436B12046FFF77C
:103DD0009DFF21463046FFF74FFF204600F0A6FE2C
:103DE00000203434A070607004F8340924E000BF6F
:103DF00094F83400032807D143463A46214630461A
:103E0000009500F01CF803E0E765A4F860802564E5
:103E1000204601F043F936B12046FFF777FF2146EF
:103E20003046FFF729FF04203434A0700020607072
:103E300004F8340900E000BF00BFBDE8F883F0B526
:103E40000446059E086BCD8F0AE0C768A74204D1DF
:103E5000046142610383C66104E020306F1EBDB27D
:103E6000002DF2DC00BFF0BD70B50025074C03E06B
:103E700005F12000C5B2241D20680028F8D0206874
:103E8000FCF7EFF92844C5B2284670BDEC000020CD
:103E9000002004E00021034A42F82010401C0228C0
:103EA000F8D37047EC00002030B5420900F01F0342
:103EB0000121C3F11F04A140034C54F822400C43DC
:103EC000014D45F8224030BDEC00002030B54209DC
:103ED00000F01F030121C3F11F04A140034C54F85B
:103EE00022408C43014D45F8224030BDEC000020BB
:103EF0000021034A1160034A1180018070470000CD
:103F000050010020540100202DE9F04F85B00746F4
:103F10008A4693461C460020029000BF00BF00BFA7
:103F2000FCF798F9029000BF00BF48480078401C99
:103F30004649087000BF00BF0298FCF78FF900BF28
:103F400000BF00BF07F108063089002842D104F005
:103F5000100010B94FF0000801E04FF01008DDE943
:103F60000E0143465A46CDE90001514607F12000B3
:103F7000FFF792FD00BF00BF00BFFCF76BF9029096
:103F800000BF00BF31480078401E30490870084625
:103F90000078A0B92E480088002809DD00BF00BFC6
:103FA0000298FCF75BF900BF00BF00F009F90DE0D3
:103FB00000BF00BF0298FCF751F900BF06E000BF48
:103FC00000BF0298FCF74AF900BF00BF00BF05B070
:103FD000BDE8F08F04F4007008B1358900E00125D8
:103FE000D6F8009011E0D9F808000390D9F8040041
:103FF00004900E985B465246009038460399FFF7AE
:10400000BEFEDDF81090681E85B2002DEBD100BF1A
:1040100000BF00BFFCF71EF9029000BF00BF0B48B5
:104020000078401E0949087000BF00BF0298FCF7E5
:1040300015F900BF00BF00BF04F4004008B9FDF748
:104040002FFC00210F98018000BFC0E7560100201F
:104050002001002000210AE001EB4102054B03EBA7
:10406000820000220281026042604A1CD1B24029D3
:10407000F2D370471876002010B5044694F8370044
:10408000FFF712FF94F8370005490978884203D1F9
:10409000204600F027F802E0204600F003F810BDAB
:1040A0004A01002010B590F8373003EB43030C4C65
:1040B00004EB83010B893BB901230B810023C3600F
:1040C00003610860486009E00B895B1C0B810B6889
:1040D000C360002303610A681061086010BD00001E
:1040E0001876002010B590F8373003EB43030B4CE3
:1040F00004EB83010B893BB901230B810023C360CF
:1041000003610860486008E00B895B1C0B81002399
:10411000C3604A680261D060486010BD1876002014
:1041200010B501460C8924B1012C03D0022C0CD10E
:1041300001E000BF14E008684A6802610024C4601E
:104140001461D0600A6048600AE008684A68C36881
:1041500000241C61C4600261D0600B60486000BF35
:1041600000BF10BD2DE9F041054695F8370000EB82
:104170004000124901EB80042F69EE6887B946B907
:10418000002020812060606095F83700FFF79EFED8
:104190000EE02089401E208100203061266007E06B
:1041A0002089401E2081FE600EB9676000E0376103
:1041B00000202861E860BDE8F0810000187600204A
:1041C00010B5002400BFFCF745F8044600BF0020EE
:1041D0000D4908700D480E49086008460068D0F87F
:1041E0008C00401C0968C1F88C000A480068401C1B
:1041F000084908604FF080500749086000BF20461A
:10420000FCF72CF800BF10BD4B01002050750020BA
:10421000B00100208001002004ED00E070B50546EB
:1042200000262E480078012800D070BD00BF00BFD6
:10423000FCF710F8064600BF00BF2C683CB900BF71
:1042400000BF3046FCF70AF800BF00BFEDE7244886
:10425000844207D100BF00BF3046FBF7FFFF00BF1D
:1042600000BFE2E7A06D10B1A06D401EA065A06D7B
:1042700038B100BF00BF3046FBF7F0FF00BF00BF02
:10428000D3E72889022807DA00BF00BF3046FBF7D2
:10429000E5FF00BF00BFC8E712480078002807DD2F
:1042A00000BF00BF3046FBF7D9FF00BF00BFBCE72F
:1042B0002846FFF735FF2C68606D18B90A4800687A
:1042C000A06501E0606DA06500BF00BF3046FBF750
:1042D000C5FF00BF00BF00BFA7E700005C010020D2
:1042E00088740020560100205801002009A1C161F6
:1042F000002141610849096811B90021816105E087
:1043000005490968816104490968486102490860F2
:104310007047000020000000600100200021034AD7
:104320001160034A11800180704700006001002085
:10433000640100202DE9FF5F0446884691461D4632
:104340000020019000BF00BFFBF784FF019000BF79
:1043500000BF04F10807388900284FD10420012844
:1043600004D0022814D0042834D123E0206AFF2886
:104370000DD100BF00BF0198FBF770FF00BF00BF69
:1043800046F6C5502880002004B0BDE8F09F22E02A
:104390004FF6FF71206A88420BD100BF00BF019821
:1043A000FBF75CFF00BF00BF46F6C5502880002029
:1043B000EAE710E0206A401C58B900BF00BF01982E
:1043C000FBF74CFF00BF00BF46F6C5502880002019
:1043D000DAE700E000BF00BF206A401C2062D4F88A
:1043E00020A0C4F8249000BF00BF0198FBF736FF5F
:1043F00000BF00BF002028805046C5E700BF254809
:104400000078401C2349087000BF00BF0198FBF7EB
:1044100025FF00BF00BF00BF08F4007008B13E894F
:1044200000E00126D7F800B011E0DBF808000290A8
:10443000DBF80400039000231A46CDF800902046D4
:104440000299FFF79CFCDDF80CB0701E86B2002EBE
:10445000EBD1D4F820A000BF00BF00BFFBF7FAFEED
:10446000019000BF00BF0B480078401E094908704A
:1044700000BF00BF0198FBF7F1FE00BF00BF00BF07
:1044800008F4004008B9FDF70BFA002028805046D8
:104490007AE70000560100201CB50020009000BF04
:1044A00006E07C490968480001AA0021FEF752FB9A
:1044B000794800780128F4D101A8FDF7D1FC002744
:1044C0007648006873490968884205D973480068CE
:1044D00070490968B0FBF1F727B9704800680A21F4
:1044E000B0FBF1F7D5E04FF0000A00BF00BFFBF7CB
:1044F000B1FE009000BF00BF6948006869490860CC
:1045000000206749086000BF00BF0098FBF7A6FEC7
:1045100000BF00BF6448006862490968884213D937
:104520006148006860B15F480068642148435E49A3
:104530000968B0FBF1F0C0F164005C49087006E066
:1045400064205A49087002E0642058490870FDF759
:104550004BFD00252E465648046851E000BF00BFC1
:1045600000BFFBF777FE009000BF00BF5148007806
:10457000401C5049087000BF00BF0098FBF76EFE5A
:1045800000BF00BF00BF54F8981F6068C4E9021064
:10459000002121606160983C00BF00BF00BFFBF7B5
:1045A00059FE009000BF00BF42480078401E4149BC
:1045B000087008460078A0B93F480088002809DD47
:1045C00000BF00BF0098FBF749FE00BF00BFFFF728
:1045D000F7FD0DE000BF00BF0098FBF73FFE00BFF6
:1045E00006E000BF00BF0098FBF738FE00BF00BF29
:1045F00000BF54F8A01F60684D194641E0690446A9
:10460000002CABD16422002328463146FBF777FE0D
:1046100005460E462648046821E0002185EA01008F
:10462000714008430ED02A463346D4E928B1584693
:10463000FBF765FE00F0FF09B9F1640F04D94FF0F4
:10464000640901E04FF0000984F88B9001AB04F19C
:10465000B002111D2046FEF7BBF8D4F8BC40002C78
:10466000DBD116480078012805D1002013490870D5
:1046700001A8FDF7F5FBCAF1000811480068804564
:1046800002D90F48C0F8008001AA00213846FEF781
:1046900061FA28E74CB700087401002064B70008ED
:1046A00068010020700100206C01002066010020DC
:1046B0008401002056010020200100207C01002000
:1046C0007801002010B58AB0044600201F49086018
:1046D0001F4908601F4908601F4908701F4908707A
:1046E0001F48006820B946F62C6020800AB010BD33
:1046F0001C4800681C490968884203D246F62D60B0
:104700002080F3E7194800783F2803D346F273204E
:104710002080EBE7032000210591CDE907040691F5
:10472000084610490968124A12680D4B1B68CDE90A
:104730000132CDE903100D48007800230D4A0EA187
:1047400000901248FDF75AFC00BFCFE76801002037
:10475000700100206C010020740100207C01002009
:1047600050B7000858B7000860B7000848B70008FD
:1047700054B700089944000875432F4F532D4949F9
:10478000492053746174205461736B0018790020C0
:1047900038B504460D4685B16B46022229462046AF
:1047A00000F09EFBBDF8000018B9032084F8360025
:1047B00006E0022084F8360002E0022084F8360089
:1047C0002046FFF7CFFC38BD0021C0F8B8100949DA
:1047D000096819B90021C0F8BC1007E0054909684B
:1047E000C0F8BC1003490968C1F8B8000149086065
:1047F0007047000084010020D0F8B820D0F8BC1029
:104800004AB90D4B196011B10023C1F8B83000232B
:10481000C0F8BC300FE029B90023C2F8BC30C0F8A2
:10482000B83008E0C2F8BC10C1F8B8200023C0F8C6
:10483000BC30C0F8B8307047840100200021044A21
:104840001160044A1180044A116001807047000021
:1048500084010020880100208001002070B50446FA
:1048600000202060A0606060E06020616061A06165
:10487000E06128A0206200206062A062E062206304
:10488000E0872064E065A4F86000002104F1640082
:10489000FFF7FAF8002044F8740F6060E060A0822F
:1048A0002061743C002506E0002104F17C0040F802
:1048B0002510681CC5B2002DF6D0002034342061CC
:1048C0006067A067606084F85600C4F88000E06705
:1048D00020814FF0004060610020A061E061206213
:1048E000606284F85700A065E06500262666002116
:1048F0006166A16620706070A0704020E0700020AA
:10490000C4F88400C4F8880004A0C4F88C00343CC7
:1049100070BD00003F5461736B0000002000000078
:104920002DE9FC4704460F4690469946DDE90A65A5
:104930004FF0000A00BF00BF00BFFBF78BFC8246B0
:1049400000BF00BF76480078401C7549087000BF62
:1049500000BF5046FBF782FC00BF00BF00BF0CB990
:10496000704804680020288094F8360008287DD21A
:10497000DFE800F004053E3F0607404100BF00BFEE
:1049800000BF4B464246394604F16400CDE900655C
:10499000FFF782F800BF00BF00BFFBF75BFC824659
:1049A00000BF00BF5E480078401E5D4908700846A1
:1049B0000078A0B95C480088002809DD00BF00BF6E
:1049C0005046FBF74BFC00BF00BFFFF7F9FB0DE0C3
:1049D00000BF00BF5046FBF741FC00BF06E000BF30
:1049E00000BF5046FBF73AFC00BF00BF00BF93E09A
:1049F00000BF00BF00BF94F83400022821D1434615
:104A00003A46214600200096FFF7B9F900BF00BFE3
:104A100000BFFBF71FFC824600BF00BF4048007884
:104A2000401E3F49087000BF00BF5046FBF716FC10
:104A300000BF00BF00BF09F4004090BBFCF730FF8F
:104A400038E04B464246394604F16400CDE9006542
:104A5000FFF722F800BF00BF00BFFBF7FBFB824659
:104A600000BF00BF2E480078401E00E023E02C4924
:104A7000087008460078A8B92B480088002809DD8E
:104A800000BF00BF5046FBF7E9FB00BF00BFFFF7C8
:104A900097FB0EE000BF00BF5046FBF7DFFB00BFF7
:104AA00007E007E000BF00BF5046FBF7D7FB00BFA1
:104AB00000BF00BF30E000BF00BF00BFFBF7CAFB74
:104AC000824600BF00BF16480078401E1449087097
:104AD00008460078A0B914480088002809DD00BF06
:104AE00000BF5046FBF7BAFB00BF00BFFFF768FBF3
:104AF0000DE000BF00BF5046FBF7B0FB00BF06E073
:104B000000BF00BF5046FBF7A9FB00BF00BF00BFBE
:104B100046F62A60288000BF00BFBDE8FC87000081
:104B200056010020AC0100202001002010B50446F1
:104B3000204600F0B3FA94F8360000F0040010B9F3
:104B40002046FFF799FA10BD08B504480068FDF744
:104B500039FD69460020FDF78BFB08BDAC01002044
:104B60002DE9F8430446884617461D464FF00009D4
:104B700000BF00BF00BFFBF76DFB814600BF00BF59
:104B8000CA480078401CC949087000BF00BF4846A9
:104B9000FBF764FB00BF00BF00BF0CB9C44804684A
:104BA00027640020288094F83600082871D2DFE8B6
:104BB00000F00405EBEC0607EDEE00BF00BF00BF00
:104BC0000420012804D0022839D004286FD170E0D5
:104BD000606CFF2832D100BF00BF00BFFBF73AFB7B
:104BE000814600BF00BFB1480078401EAF49087041
:104BF00008460078A0B9AF480088002809DD00BF4A
:104C000000BF4846FBF72AFB00BF00BFFFF7D8FAFA
:104C10000DE000BF00BF4846FBF720FB00BF06E0E9
:104C200000BF00BF4846FBF719FB00BF00BF00BF35
:104C300046F6C55028800020BDE8F88371E04FF6A5
:104C4000FF71606C884233D100BF00BF00BFFBF72B
:104C500001FB814600BF00BF94480078401E934985
:104C6000087008460078A8B992480088002809DD35
:104C700000BF00BF4846FBF7F1FA00BF00BFFFF7D7
:104C80009FFA0EE000BF00BF4846FBF7E7FA00BFFF
:104C900007E0D5E000BF00BF4846FBF7DFFA00BFE2
:104CA00000BF00BF46F6C55028800020C4E737E0AB
:104CB00037E0606C401C88BB00BF00BF00BFFBF743
:104CC000C9FA814600BF00BF78480078401E774986
:104CD000087008460078A0B976480088002809DDE9
:104CE00000BF00BF4846FBF7B9FA00BF00BFFFF79F
:104CF00067FA0DE000BF00BF4846FBF7AFFA00BF00
:104D000006E000BF00BF4846FBF7A8FA00BF00BF9F
:104D100000BF46F6C550288000208DE7FFE700E081
:104D200000BF00BF606C401C6064666C00BF00BFC9
:104D300000BFFBF78FFA814600BF00BF5B480078D9
:104D4000401E5A49087008460078A0B959480088A2
:104D5000002809DD00BF00BF4846FBF77FFA00BF0F
:104D600000BFFFF72DFA0DE000BF00BF4846FBF77C
:104D700075FA00BF06E000BF00BF4846FBF76EFAB9
:104D800000BF00BF00BF8DE000BF00BF00BF94F8B0
:104D90003400072822D100231A46214618460097DE
:104DA000FEF7EDFF666C00BF00BF00BFFBF752FAD5
:104DB000814600BF00BF3D480078401E3B49087057
:104DC00000BF00BF4846FBF749FA00BF00BF00BF65
:104DD00008F4004098BBFCF763FD30E0606C401CB9
:104DE0006064666C00BF00BF00BFFBF733FA81460A
:104DF00000BF00BF2D480078401E2C4908700846AF
:104E00000078A0B92B480088002809DD00BF00BF4A
:104E10004846FBF723FA00BF00BFFFF7D1F90DE0CA
:104E200000BF00BF4846FBF719FA00BF06E000BF0D
:104E300000BF4846FBF712FA00BF00BF00BF31E0D9
:104E400000BF00BF00BFFBF705FA814600BF00BFEF
:104E500016480078401E1549087008460078A0B929
:104E600014480088002809DD00BF00BF4846FBF752
:104E7000F5F900BF00BFFFF7A3F90DE000BF00BFC9
:104E80004846FBF7EBF900BF06E000BF00BF48460D
:104E9000FBF7E4F900BF00BF00BF46F62A60288098
:104EA000002600BF00BF3046C6E6000056010020C5
:104EB000AC01002020010020002108E0064A02EB9E
:104EC000C100002202608280C2804A1C91B2034A63
:104ED00012889142F2DB7047B47100207CB7000861
:104EE0002DE9F04F0C4616461D46042E1ED1DFF864
:104EF000A091D9F80090A4EB0909A9F1010313F5D9
:104F0000803F0DD94FF00009C0F84C90C0F8509088
:104F1000C0F81C9047F27E29A5F80090BDE8F08FFC
:104F2000C46403F10109C0F850903FE084B3082E37
:104F300025D1D0F8489009EB0407DFF85491D9F84F
:104F40000090A7EB0909A9F10103A34201D2C764AC
:104F500006E0DFF83C91D9F80090A144C0F84C90ED
:104F6000DFF82CA1D0F84C90DAF800A0A9EB0A09E0
:104F7000C0F85090D0F84C90C0F8489016E0DFF898
:104F80001091D9F80090A144C0F84C9004650DE050
:104F9000FFE74FF00009C0F84C90C0F85090C0F8FF
:104FA0001C9047F27E29A5F80090B7E7DFF8E4A04F
:104FB000BAF800A0D0F84C90B9FBFAFB0AFB1B9999
:104FC0001FFA89F8DFF8D09009EBC802B2F8049014
:104FD000B9F1000F0BD14FF00009C0F81490C0F8E0
:104FE000189010604FF00109A2F804903EE011689B
:104FF00034E0DFF89CA0D1F84C90DAF800A0A9EBDF
:105000000A09C1F85090D0F85090D1F850A0D1457D
:105010000ED9D1F81490B9F1000F01D049691DE003
:105020004FF00009C0F8149081614861002115E03B
:10503000D1F81890B9F1000F07D14FF00009C0F86E
:10504000189041618861106007E0D1F818C0C0F87D
:1050500018C04161CCF81400886100210029C8D132
:10506000B2F8049009F10109A2F80490B2F8069090
:10507000B2F804A0D14503DAB2F80490A2F8069081
:10508000C2614FF00009A5F8009000BF46E700009C
:105090008C0100207CB70008B471002010B5C269F3
:1050A000BAB1002404651468844205D141691160D5
:1050B00039B100248C6104E0816943694B6103B11B
:1050C0009961002444618461C461C4649488641E4D
:1050D000948010BD002006E0054A02EBC0010022CA
:1050E000CA80421C90B2034A12889042F4DB704797
:1050F000B47100207CB700082DE9F05F4FF0000B81
:1051000000BF00BF00BFFBF7A5F8834600BF00BF8C
:105110006E480078401C6D49087000BF00BF5846BB
:10512000FBF79CF800BF00BF00BF4FF0000A6848C3
:105130000068401C6649086008460068654909889F
:10514000B0FBF1F201FB12001FFA80F9624800EB9C
:10515000C9073C6800267EE0002C7BD0D4F8148080
:1051600094F83600082871D2DFE800F00408051B27
:10517000063B074E00BF00BF00BF68E05449E06C2B
:105180000968401A20655249E06C0968884206D1D6
:10519000002084F836002046FFF7C8FC00E0012616
:1051A00055E04B49E06C0968401A20654849E06CBD
:1051B0000968884213D10020E065A4F860002064EB
:1051C0002046FEF7A3FD2046FFF7B0FC0020343454
:1051D000A07003206070002004F8340900E001266C
:1051E00035E03B49E06C0968401A20653849E06CBD
:1051F0000968884206D1042084F836002046FFF76B
:105200004DFF00E0012622E03149E06C0968401AB8
:1052100020652F49E06C0968884215D10020E065BF
:10522000A4F8600020642046FEF770FD2046FFF7DA
:1052300035FF04203434A07003206070002004F88F
:10524000340902E006E001E0012600E000BF00BFF3
:10525000444600E00126002E3FF47EAFCAF100056F
:105260001E480068854201D91C48056000BF00BF88
:1052700000BFFAF7EFFF834600BF00BF1348007876
:10528000401E1249087008460078A0B914480088EA
:10529000002809DD00BF00BF5846FAF7DFFF00BF56
:1052A00000BFFEF78DFF0DE000BF00BF5846FAF7C4
:1052B000D5FF00BF06E000BF00BF5846FAF7CEFF9B
:1052C00000BF00BF00BFBDE8F09F000056010020F6
:1052D0008C0100207CB70008B471002090010020F0
:1052E000200100201CB500BF0EE001AB6A46002182
:1052F0000846FDF773F9BDF8040028B903480078A3
:10530000012801D1FFF7F8FEEFE7000015010020AA
:1053100010B58AB00446002014490860144908609A
:10532000FFF7CAFD134800783F2804D346F27320E4
:1053300020800AB010BD032000210591CDE90704AB
:1053400006910D4802680D4800680D4B1B68CDE9B9
:105350000130CDE90321074800780023094A0AA15A
:1053600000900E48FCF74AFE00BFE2E78C010020E7
:105370009001002068B7000874B7000870B70008F3
:105380006CB70008E552000875432F4F532D49496B
:1053900049205469636B205461736B00E0790020ED
:1053A0000021C1620749096811B90021016305E0C4
:1053B00004490968016303490968C8620149086032
:1053C000704700009401002070B58AB004460020A8
:1053D000314908603148006840B1314800682F49C0
:1053E0000968B0FBF1F02F49086006E02C4800681E
:1053F0000A21B0FBF1F02B4908602A4800682A49CD
:10540000086000202949086029490860002508E053
:10541000284800EBC5060020B080F0803060681C92
:1054200085B2254800888542F2DB2448006820B90F
:1054300047F2463020800AB070BD214800682149FB
:105440000968884203D247F246302080F3E71E48BD
:1054500000783F2803D346F273202080EBE7032037
:1054600000210591CDE90704069108461449096811
:10547000164A1268114B1B68CDE90132CDE90310C1
:10548000114800780023124A12A100901748FCF737
:10549000B5FD00BFCFE700009401002088B70008E9
:1054A00064B70008A4010020A8010020A00100208A
:1054B0009C0100201C7400209CB700088CB70008D9
:1054C00094B7000860B7000884B7000890B70008D8
:1054D000E555000875432F4F532D4949492054691C
:1054E0006D6572205461736B00000000A87A002083
:1054F000F0B50C46022680F82A60012C05D12D4F0C
:10550000466A3F683E4486610CE0066A2EB9294F20
:10551000466A3F683E44866104E0264F066A3F685B
:105520003E448661244F3F888669B6FBF7FC07FB43
:105530001C66B5B2214E06EBC502166836B90026C8
:10554000066146611060012696802CE0194F86693D
:105550003F68F61BC661116820E0164F8E693F68F0
:10556000F61BCE61C669CF69BE4209D90E690EB17C
:10557000096913E0002606614161086100210DE020
:105580004E692EB90026466101614861106004E051
:105590004B69436101611861486100210029DCD138
:1055A0009688761C9680D6889788BE4201DA9688BF
:1055B000D680F0BDA00100209CB700081C7400201C
:1055C000002006E0054A02EBC0010022CA80421C0E
:1055D00090B2034A12889042F4DB70471C7400209A
:1055E0009CB700081CB500BF4FE001AB6A46002124
:1055F0000846FCF7F3FF01A8FCF7A6F94FF0000AF4
:1056000022480068401C214908600846006820497B
:105610000988B0FBF1F201FB12001FFA80F91D4866
:1056200000EBC9073C68D34621E0F4B1D4F8108000
:105630001649A0690968884214D1204600F02EF866
:10564000208D022804D101212046FFF751FF02E0FE
:10565000032084F82A00A56815B12046E168A84710
:10566000444604E04FF0010B01E04FF0010BBBF1A9
:10567000000FDAD0CAF1000601A8FCF7CFF90648FE
:105680000068864201D904480660AEE7A001002008
:105690009CB700081C7400209C010020F0B5114E3E
:1056A00036888569B5FBF6F706FB1755ACB20E4D8B
:1056B00005EBC4021568854205D10169116039B155
:1056C00000254D6104E0416903690B6103B1596133
:1056D000012580F82A5000250561456195886D1ED9
:1056E0009580F0BD9CB700081C7400200149086239
:1056F0007047000000000E4229B1064A5269024379
:10570000044B5A6104E0034A52698243014B5A61D7
:10571000704700000010024029B1064AD2690243D6
:10572000044BDA6104E0034AD2698243014BDA6137
:10573000704700000010024029B1064A1269024376
:10574000044B1A6104E0034A12698243014B1A6157
:10575000704700000010024029B1064A92690243D6
:10576000044B9A6104E0034A92698243014B9A61B7
:10577000704700000010024029B1064AD268024377
:10578000044BDA6004E0034AD2688243014BDA60DA
:105790007047000000100240014908607047000097
:1057A000400442420348406A40F080700149486228
:1057B000704700000010024030B500210022002494
:1057C00000232D4D6D6805F00C0121B1042905D091
:1057D000082923D105E0294D056022E0274D056009
:1057E0001FE0254D6D6805F47012234D6D6805F4BA
:1057F0008034022505EB92421CB9214D55430560CA
:105800000BE01D4D6D6805F400351DB11C4D554371
:10581000056002E0194D5543056002E0174D056033
:1058200000BF00BF144D6D6805F0F0010909154D6A
:105830006B5C0568DD4045600F4D6D6805F4E06107
:10584000090A104D6B5C4568DD4085600A4D6D6846
:1058500005F46051C90A0B4D6B5C4568DD40C560BD
:10586000054D6D6805F44041890B074D6B5CC568BB
:10587000B5FBF3F5056130BD0010024000127A005F
:1058800000093D00C2000020D200002010B50146F2
:105890000022002300204A11012A02D1094C23686A
:1058A00006E0022A02D1074C236A01E0054C636A34
:1058B00001F01F02012494401C400CB1012000E0C3
:1058C000002010BD0010024000210B4A11700A4A4E
:1058D000203A82F82010012802D0042808D103E0E1
:1058E0000121054A117004E00521034A117000E00E
:1058F00000BF00BF7047000020100240014908604F
:10590000704700003C0442420249096A0143014ACF
:105910001162704700100240024909888143014A20
:10592000118070470428004010B501214FF0C0508D
:10593000FFF7F2FE0120FFF7D9FEFAF7EBFD012099
:10594000FFF7C2FF00BF4120FFF7A0FF0028FAD0F9
:105950004FF48070FFF7D8FF0120FFF7CFFF00F072
:10596000ADF800F0A1F80121084600F06FF800F052
:105970009BF847F6FF7000F087F800F095F810BD2F
:105980000348008840F0100001490880704700007B
:1059900004280040034800884FF6EF710840014991
:1059A0000880704704280040002103480188001F38
:1059B000008841EA004070471C2800400146002052
:1059C000064A12880A40D0B2044A121F12880A40BE
:1059D00012B108B1012000E0002070470428004007
:1059E00010B5FBF7B9FD002400BF00BFFAF732FC89
:1059F000044600BF00BF0120FFF7E0FFC0B1012057
:105A0000FFF78AFF01200F49086000F04DF8FFF70B
:105A1000CBFF0D4988420BD10120FFF767FE00F054
:105A200043F8002000F022F800F03EF801F0A2FD5B
:105A300000BF00BF2046FAF711FC00BF00BFFBF714
:105A4000A1FD10BDB80000207F51010029B1064A18
:105A500012880243044B1A8004E0034A12888243EE
:105A6000014B1A80704700000028004000B5024634
:105A7000FFF786FF100C03490880091D0A80FFF715
:105A800089FF00BD1828004000B50246FFF778FFE7
:105A9000C2F3034003490880091D0A80FFF77AFF1B
:105AA00000BD00000828004000BF0348008800F047
:105AB00020000028F9D070470428004007480088DB
:105AC0004FF6F77108400549088000BF0348008879
:105AD00000F008000028F9D07047000004280040BA
